{
  "_format": "hh-sol-artifact-1",
  "contractName": "MasterContract",
  "sourceName": "contracts/MasterContract.sol",
  "abi": [
    {
      "inputs": [],
      "stateMutability": "nonpayable",
      "type": "constructor"
    },
    {
      "inputs": [
        {
          "internalType": "address",
          "name": "sender",
          "type": "address"
        },
        {
          "internalType": "uint256",
          "name": "tokenId",
          "type": "uint256"
        },
        {
          "internalType": "address",
          "name": "owner",
          "type": "address"
        }
      ],
      "name": "ERC721IncorrectOwner",
      "type": "error"
    },
    {
      "inputs": [
        {
          "internalType": "address",
          "name": "operator",
          "type": "address"
        },
        {
          "internalType": "uint256",
          "name": "tokenId",
          "type": "uint256"
        }
      ],
      "name": "ERC721InsufficientApproval",
      "type": "error"
    },
    {
      "inputs": [
        {
          "internalType": "address",
          "name": "approver",
          "type": "address"
        }
      ],
      "name": "ERC721InvalidApprover",
      "type": "error"
    },
    {
      "inputs": [
        {
          "internalType": "address",
          "name": "operator",
          "type": "address"
        }
      ],
      "name": "ERC721InvalidOperator",
      "type": "error"
    },
    {
      "inputs": [
        {
          "internalType": "address",
          "name": "owner",
          "type": "address"
        }
      ],
      "name": "ERC721InvalidOwner",
      "type": "error"
    },
    {
      "inputs": [
        {
          "internalType": "address",
          "name": "receiver",
          "type": "address"
        }
      ],
      "name": "ERC721InvalidReceiver",
      "type": "error"
    },
    {
      "inputs": [
        {
          "internalType": "address",
          "name": "sender",
          "type": "address"
        }
      ],
      "name": "ERC721InvalidSender",
      "type": "error"
    },
    {
      "inputs": [
        {
          "internalType": "uint256",
          "name": "tokenId",
          "type": "uint256"
        }
      ],
      "name": "ERC721NonexistentToken",
      "type": "error"
    },
    {
      "anonymous": false,
      "inputs": [
        {
          "indexed": true,
          "internalType": "address",
          "name": "owner",
          "type": "address"
        },
        {
          "indexed": true,
          "internalType": "address",
          "name": "approved",
          "type": "address"
        },
        {
          "indexed": true,
          "internalType": "uint256",
          "name": "tokenId",
          "type": "uint256"
        }
      ],
      "name": "Approval",
      "type": "event"
    },
    {
      "anonymous": false,
      "inputs": [
        {
          "indexed": true,
          "internalType": "address",
          "name": "owner",
          "type": "address"
        },
        {
          "indexed": true,
          "internalType": "address",
          "name": "operator",
          "type": "address"
        },
        {
          "indexed": false,
          "internalType": "bool",
          "name": "approved",
          "type": "bool"
        }
      ],
      "name": "ApprovalForAll",
      "type": "event"
    },
    {
      "anonymous": false,
      "inputs": [
        {
          "indexed": true,
          "internalType": "address",
          "name": "artist",
          "type": "address"
        }
      ],
      "name": "ArtistRegistered",
      "type": "event"
    },
    {
      "anonymous": false,
      "inputs": [
        {
          "indexed": true,
          "internalType": "address",
          "name": "artist",
          "type": "address"
        },
        {
          "indexed": false,
          "internalType": "address",
          "name": "projectContract",
          "type": "address"
        },
        {
          "indexed": false,
          "internalType": "uint256",
          "name": "tokenId",
          "type": "uint256"
        }
      ],
      "name": "ProjectCreated",
      "type": "event"
    },
    {
      "anonymous": false,
      "inputs": [
        {
          "indexed": true,
          "internalType": "address",
          "name": "from",
          "type": "address"
        },
        {
          "indexed": true,
          "internalType": "address",
          "name": "to",
          "type": "address"
        },
        {
          "indexed": true,
          "internalType": "uint256",
          "name": "tokenId",
          "type": "uint256"
        }
      ],
      "name": "Transfer",
      "type": "event"
    },
    {
      "anonymous": false,
      "inputs": [
        {
          "indexed": true,
          "internalType": "address",
          "name": "user",
          "type": "address"
        },
        {
          "indexed": true,
          "internalType": "uint256",
          "name": "tokenId",
          "type": "uint256"
        }
      ],
      "name": "UserContributed",
      "type": "event"
    },
    {
      "anonymous": false,
      "inputs": [
        {
          "indexed": true,
          "internalType": "address",
          "name": "user",
          "type": "address"
        }
      ],
      "name": "UserRegistered",
      "type": "event"
    },
    {
      "inputs": [
        {
          "internalType": "address",
          "name": "to",
          "type": "address"
        },
        {
          "internalType": "uint256",
          "name": "tokenId",
          "type": "uint256"
        }
      ],
      "name": "approve",
      "outputs": [],
      "stateMutability": "nonpayable",
      "type": "function"
    },
    {
      "inputs": [
        {
          "internalType": "address",
          "name": "",
          "type": "address"
        }
      ],
      "name": "artists",
      "outputs": [
        {
          "internalType": "string",
          "name": "name",
          "type": "string"
        }
      ],
      "stateMutability": "view",
      "type": "function"
    },
    {
      "inputs": [
        {
          "internalType": "address",
          "name": "owner",
          "type": "address"
        }
      ],
      "name": "balanceOf",
      "outputs": [
        {
          "internalType": "uint256",
          "name": "",
          "type": "uint256"
        }
      ],
      "stateMutability": "view",
      "type": "function"
    },
    {
      "inputs": [
        {
          "internalType": "uint256",
          "name": "_tokenId",
          "type": "uint256"
        }
      ],
      "name": "contributeToProject",
      "outputs": [],
      "stateMutability": "payable",
      "type": "function"
    },
    {
      "inputs": [
        {
          "internalType": "string",
          "name": "_name",
          "type": "string"
        },
        {
          "internalType": "uint256",
          "name": "_goalAmount",
          "type": "uint256"
        }
      ],
      "name": "createProject",
      "outputs": [],
      "stateMutability": "nonpayable",
      "type": "function"
    },
    {
      "inputs": [
        {
          "internalType": "uint256",
          "name": "tokenId",
          "type": "uint256"
        }
      ],
      "name": "getApproved",
      "outputs": [
        {
          "internalType": "address",
          "name": "",
          "type": "address"
        }
      ],
      "stateMutability": "view",
      "type": "function"
    },
    {
      "inputs": [
        {
          "internalType": "address",
          "name": "_artist",
          "type": "address"
        }
      ],
      "name": "getArtistProjects",
      "outputs": [
        {
          "internalType": "address[]",
          "name": "",
          "type": "address[]"
        }
      ],
      "stateMutability": "view",
      "type": "function"
    },
    {
      "inputs": [
        {
          "internalType": "address",
          "name": "_user",
          "type": "address"
        }
      ],
      "name": "getUserContributions",
      "outputs": [
        {
          "internalType": "uint256[]",
          "name": "",
          "type": "uint256[]"
        }
      ],
      "stateMutability": "view",
      "type": "function"
    },
    {
      "inputs": [
        {
          "internalType": "address",
          "name": "owner",
          "type": "address"
        },
        {
          "internalType": "address",
          "name": "operator",
          "type": "address"
        }
      ],
      "name": "isApprovedForAll",
      "outputs": [
        {
          "internalType": "bool",
          "name": "",
          "type": "bool"
        }
      ],
      "stateMutability": "view",
      "type": "function"
    },
    {
      "inputs": [
        {
          "internalType": "address",
          "name": "_address",
          "type": "address"
        }
      ],
      "name": "isArtist",
      "outputs": [
        {
          "internalType": "bool",
          "name": "",
          "type": "bool"
        }
      ],
      "stateMutability": "view",
      "type": "function"
    },
    {
      "inputs": [],
      "name": "name",
      "outputs": [
        {
          "internalType": "string",
          "name": "",
          "type": "string"
        }
      ],
      "stateMutability": "view",
      "type": "function"
    },
    {
      "inputs": [
        {
          "internalType": "uint256",
          "name": "tokenId",
          "type": "uint256"
        }
      ],
      "name": "ownerOf",
      "outputs": [
        {
          "internalType": "address",
          "name": "",
          "type": "address"
        }
      ],
      "stateMutability": "view",
      "type": "function"
    },
    {
      "inputs": [
        {
          "internalType": "uint256",
          "name": "",
          "type": "uint256"
        }
      ],
      "name": "projects",
      "outputs": [
        {
          "internalType": "string",
          "name": "name",
          "type": "string"
        },
        {
          "internalType": "uint256",
          "name": "goalAmount",
          "type": "uint256"
        },
        {
          "internalType": "address",
          "name": "projectContract",
          "type": "address"
        },
        {
          "internalType": "uint256",
          "name": "tokenId",
          "type": "uint256"
        }
      ],
      "stateMutability": "view",
      "type": "function"
    },
    {
      "inputs": [
        {
          "internalType": "string",
          "name": "_name",
          "type": "string"
        }
      ],
      "name": "registerArtist",
      "outputs": [],
      "stateMutability": "nonpayable",
      "type": "function"
    },
    {
      "inputs": [],
      "name": "registerUser",
      "outputs": [],
      "stateMutability": "nonpayable",
      "type": "function"
    },
    {
      "inputs": [
        {
          "internalType": "address",
          "name": "from",
          "type": "address"
        },
        {
          "internalType": "address",
          "name": "to",
          "type": "address"
        },
        {
          "internalType": "uint256",
          "name": "tokenId",
          "type": "uint256"
        }
      ],
      "name": "safeTransferFrom",
      "outputs": [],
      "stateMutability": "nonpayable",
      "type": "function"
    },
    {
      "inputs": [
        {
          "internalType": "address",
          "name": "from",
          "type": "address"
        },
        {
          "internalType": "address",
          "name": "to",
          "type": "address"
        },
        {
          "internalType": "uint256",
          "name": "tokenId",
          "type": "uint256"
        },
        {
          "internalType": "bytes",
          "name": "data",
          "type": "bytes"
        }
      ],
      "name": "safeTransferFrom",
      "outputs": [],
      "stateMutability": "nonpayable",
      "type": "function"
    },
    {
      "inputs": [
        {
          "internalType": "address",
          "name": "operator",
          "type": "address"
        },
        {
          "internalType": "bool",
          "name": "approved",
          "type": "bool"
        }
      ],
      "name": "setApprovalForAll",
      "outputs": [],
      "stateMutability": "nonpayable",
      "type": "function"
    },
    {
      "inputs": [
        {
          "internalType": "bytes4",
          "name": "interfaceId",
          "type": "bytes4"
        }
      ],
      "name": "supportsInterface",
      "outputs": [
        {
          "internalType": "bool",
          "name": "",
          "type": "bool"
        }
      ],
      "stateMutability": "view",
      "type": "function"
    },
    {
      "inputs": [],
      "name": "symbol",
      "outputs": [
        {
          "internalType": "string",
          "name": "",
          "type": "string"
        }
      ],
      "stateMutability": "view",
      "type": "function"
    },
    {
      "inputs": [
        {
          "internalType": "uint256",
          "name": "tokenId",
          "type": "uint256"
        }
      ],
      "name": "tokenURI",
      "outputs": [
        {
          "internalType": "string",
          "name": "",
          "type": "string"
        }
      ],
      "stateMutability": "view",
      "type": "function"
    },
    {
      "inputs": [
        {
          "internalType": "address",
          "name": "from",
          "type": "address"
        },
        {
          "internalType": "address",
          "name": "to",
          "type": "address"
        },
        {
          "internalType": "uint256",
          "name": "tokenId",
          "type": "uint256"
        }
      ],
      "name": "transferFrom",
      "outputs": [],
      "stateMutability": "nonpayable",
      "type": "function"
    },
    {
      "inputs": [
        {
          "internalType": "address",
          "name": "",
          "type": "address"
        }
      ],
      "name": "users",
      "outputs": [
        {
          "internalType": "bool",
          "name": "isRegistered",
          "type": "bool"
        }
      ],
      "stateMutability": "view",
      "type": "function"
    }
  ],
  "bytecode": "0x60806040523480156200001157600080fd5b506040518060400160405280600b81526020017f50726f6a656374204e46540000000000000000000000000000000000000000008152506040518060400160405280600481526020017f504e46540000000000000000000000000000000000000000000000000000000081525081600090816200008f919062000324565b508060019081620000a1919062000324565b5050506200040b565b600081519050919050565b7f4e487b7100000000000000000000000000000000000000000000000000000000600052604160045260246000fd5b7f4e487b7100000000000000000000000000000000000000000000000000000000600052602260045260246000fd5b600060028204905060018216806200012c57607f821691505b602082108103620001425762000141620000e4565b5b50919050565b60008190508160005260206000209050919050565b60006020601f8301049050919050565b600082821b905092915050565b600060088302620001ac7fffffffffffffffffffffffffffffffffffffffffffffffffffffffffffffffff826200016d565b620001b886836200016d565b95508019841693508086168417925050509392505050565b6000819050919050565b6000819050919050565b600062000205620001ff620001f984620001d0565b620001da565b620001d0565b9050919050565b6000819050919050565b6200022183620001e4565b6200023962000230826200020c565b8484546200017a565b825550505050565b600090565b6200025062000241565b6200025d81848462000216565b505050565b5b8181101562000285576200027960008262000246565b60018101905062000263565b5050565b601f821115620002d4576200029e8162000148565b620002a9846200015d565b81016020851015620002b9578190505b620002d1620002c8856200015d565b83018262000262565b50505b505050565b600082821c905092915050565b6000620002f960001984600802620002d9565b1980831691505092915050565b6000620003148383620002e6565b9150826002028217905092915050565b6200032f82620000aa565b67ffffffffffffffff8111156200034b576200034a620000b5565b5b62000357825462000113565b6200036482828562000289565b600060209050601f8311600181146200039c576000841562000387578287015190505b62000393858262000306565b86555062000403565b601f198416620003ac8662000148565b60005b82811015620003d657848901518255600182019150602085019450602081019050620003af565b86831015620003f65784890151620003f2601f891682620002e6565b8355505b6001600288020188555050505b505050505050565b6159ed806200041b6000396000f3fe6080604052600436106200015e5760003560e01c806370a0823111620000c7578063a87430ba1162000079578063a87430ba14620004f0578063b88d4fde1462000534578063c87b56dd1462000562578063d326c95114620005a6578063e36465a314620005ea578063e985e9c5146200062e576200015e565b806370a0823114620003d257806391754a5d14620004165780639355d4191462000444578063939f69c9146200047257806395d89b411462000492578063a22cb46514620004c2576200015e565b8063107046bd1162000121578063107046bd146200028d57806323b872dd14620002d457806342842e0e14620003025780634d3820eb14620003305780636352211e146200034a5780636b2f65b0146200038e576200015e565b806301ffc9a71462000163578063069dab8f14620001a757806306fdde0314620001eb578063081812fc146200021b578063095ea7b3146200025f575b600080fd5b3480156200017057600080fd5b506200018f600480360381019062000189919062002509565b62000672565b6040516200019e919062002558565b60405180910390f35b348015620001b457600080fd5b50620001d36004803603810190620001cd9190620025da565b62000758565b604051620001e29190620026a6565b60405180910390f35b348015620001f857600080fd5b506200020362000806565b604051620002129190620026a6565b60405180910390f35b3480156200022857600080fd5b5062000247600480360381019062000241919062002705565b620008a0565b60405162000256919062002748565b60405180910390f35b3480156200026c57600080fd5b506200028b600480360381019062000285919062002765565b620008c0565b005b3480156200029a57600080fd5b50620002b96004803603810190620002b3919062002705565b620008da565b604051620002cb9493929190620027bd565b60405180910390f35b348015620002e157600080fd5b50620003006004803603810190620002fa919062002811565b620009ba565b005b3480156200030f57600080fd5b506200032e600480360381019062000328919062002811565b62000ac6565b005b3480156200033d57600080fd5b506200034862000ae8565b005b3480156200035757600080fd5b5062000376600480360381019062000370919062002705565b62000c1b565b60405162000385919062002748565b60405180910390f35b3480156200039b57600080fd5b50620003ba6004803603810190620003b49190620025da565b62000c2f565b604051620003c9919062002558565b60405180910390f35b348015620003df57600080fd5b50620003fe6004803603810190620003f89190620025da565b62000c8b565b6040516200040d91906200286d565b60405180910390f35b3480156200042357600080fd5b506200044260048036038101906200043c9190620029db565b62000d48565b005b3480156200045157600080fd5b506200047060048036038101906200046a919062002a41565b62000fbe565b005b6200049060048036038101906200048a919062002705565b620010a4565b005b3480156200049f57600080fd5b50620004aa62001327565b604051620004b99190620026a6565b60405180910390f35b348015620004cf57600080fd5b50620004ee6004803603810190620004e8919062002ac3565b620013c1565b005b348015620004fd57600080fd5b506200051c6004803603810190620005169190620025da565b620013db565b6040516200052b919062002558565b60405180910390f35b3480156200054157600080fd5b506200056060048036038101906200055a919062002bbe565b62001406565b005b3480156200056f57600080fd5b506200058e600480360381019062000588919062002705565b62001427565b6040516200059d9190620026a6565b60405180910390f35b348015620005b357600080fd5b50620005d26004803603810190620005cc9190620025da565b6200149a565b604051620005e1919062002d1d565b60405180910390f35b348015620005f757600080fd5b50620006166004803603810190620006109190620025da565b6200156c565b60405162000625919062002e0f565b60405180910390f35b3480156200063b57600080fd5b506200065a600480360381019062000654919062002e33565b62001608565b60405162000669919062002558565b60405180910390f35b60007f80ac58cd000000000000000000000000000000000000000000000000000000007bffffffffffffffffffffffffffffffffffffffffffffffffffffffff1916827bffffffffffffffffffffffffffffffffffffffffffffffffffffffff191614806200073e57507f5b5e139f000000000000000000000000000000000000000000000000000000007bffffffffffffffffffffffffffffffffffffffffffffffffffffffff1916827bffffffffffffffffffffffffffffffffffffffffffffffffffffffff1916145b8062000751575062000750826200169c565b5b9050919050565b60066020528060005260406000206000915090508060000180546200077d9062002ea9565b80601f0160208091040260200160405190810160405280929190818152602001828054620007ab9062002ea9565b8015620007fc5780601f10620007d057610100808354040283529160200191620007fc565b820191906000526020600020905b815481529060010190602001808311620007de57829003601f168201915b5050505050905081565b606060008054620008179062002ea9565b80601f0160208091040260200160405190810160405280929190818152602001828054620008459062002ea9565b8015620008965780601f106200086a5761010080835404028352916020019162000896565b820191906000526020600020905b8154815290600101906020018083116200087857829003601f168201915b5050505050905090565b6000620008ad8262001706565b50620008b98262001793565b9050919050565b620008d68282620008d0620017d0565b620017d8565b5050565b6008602052806000526040600020600091509050806000018054620008ff9062002ea9565b80601f01602080910402602001604051908101604052809291908181526020018280546200092d9062002ea9565b80156200097e5780601f1062000952576101008083540402835291602001916200097e565b820191906000526020600020905b8154815290600101906020018083116200096057829003601f168201915b5050505050908060010154908060020160009054906101000a900473ffffffffffffffffffffffffffffffffffffffff16908060030154905084565b600073ffffffffffffffffffffffffffffffffffffffff168273ffffffffffffffffffffffffffffffffffffffff160362000a2f5760006040517f64a0ae9200000000000000000000000000000000000000000000000000000000815260040162000a26919062002748565b60405180910390fd5b600062000a47838362000a41620017d0565b620017ec565b90508373ffffffffffffffffffffffffffffffffffffffff168173ffffffffffffffffffffffffffffffffffffffff161462000ac0578382826040517f64283d7b00000000000000000000000000000000000000000000000000000000815260040162000ab79392919062002ede565b60405180910390fd5b50505050565b62000ae38383836040518060200160405280600081525062001406565b505050565b600760003373ffffffffffffffffffffffffffffffffffffffff1673ffffffffffffffffffffffffffffffffffffffff16815260200190815260200160002060000160009054906101000a900460ff161562000b7b576040517f08c379a000000000000000000000000000000000000000000000000000000000815260040162000b729062002f6b565b60405180910390fd5b6001600760003373ffffffffffffffffffffffffffffffffffffffff1673ffffffffffffffffffffffffffffffffffffffff16815260200190815260200160002060000160006101000a81548160ff0219169083151502179055503373ffffffffffffffffffffffffffffffffffffffff167f54db7a5cb4735e1aac1f53db512d3390390bb6637bd30ad4bf9fc98667d9b9b960405160405180910390a2565b600062000c288262001706565b9050919050565b600080600660008473ffffffffffffffffffffffffffffffffffffffff1673ffffffffffffffffffffffffffffffffffffffff168152602001908152602001600020600001805462000c819062002ea9565b9050119050919050565b60008073ffffffffffffffffffffffffffffffffffffffff168273ffffffffffffffffffffffffffffffffffffffff160362000d015760006040517f89c62b6400000000000000000000000000000000000000000000000000000000815260040162000cf8919062002748565b60405180910390fd5b600360008373ffffffffffffffffffffffffffffffffffffffff1673ffffffffffffffffffffffffffffffffffffffff168152602001908152602001600020549050919050565b62000d533362000c2f565b62000d95576040517f08c379a000000000000000000000000000000000000000000000000000000000815260040162000d8c9062002fdd565b60405180910390fd5b60006009600081548092919062000dac906200302e565b91905055905062000dbe338262001a0f565b6000838360405162000dd0906200248a565b62000ddd9291906200307b565b604051809103906000f08015801562000dfa573d6000803e3d6000fd5b509050600060405180608001604052808681526020018581526020018373ffffffffffffffffffffffffffffffffffffffff1681526020018481525090508060086000858152602001908152602001600020600082015181600001908162000e63919062003281565b506020820151816001015560408201518160020160006101000a81548173ffffffffffffffffffffffffffffffffffffffff021916908373ffffffffffffffffffffffffffffffffffffffff16021790555060608201518160030155905050600660003373ffffffffffffffffffffffffffffffffffffffff1673ffffffffffffffffffffffffffffffffffffffff168152602001908152602001600020600101829080600181540180825580915050600190039060005260206000200160009091909190916101000a81548173ffffffffffffffffffffffffffffffffffffffff021916908373ffffffffffffffffffffffffffffffffffffffff1602179055503373ffffffffffffffffffffffffffffffffffffffff167f3f7f2605a4860b57de4b2bb7500ef93af42fbcdac9c6d8a0f71a8134e45823b0838560405162000faf92919062003368565b60405180910390a25050505050565b62000fc93362000c2f565b156200100c576040517f08c379a00000000000000000000000000000000000000000000000000000000081526004016200100390620033e5565b60405180910390fd5b80600660003373ffffffffffffffffffffffffffffffffffffffff1673ffffffffffffffffffffffffffffffffffffffff16815260200190815260200160002060000190816200105d919062003281565b503373ffffffffffffffffffffffffffffffffffffffff167fa8476a100dfe10a5a1eaf141fb52ce03e930b3592d93f086ea603b0f9152649a60405160405180910390a250565b600760003373ffffffffffffffffffffffffffffffffffffffff1673ffffffffffffffffffffffffffffffffffffffff16815260200190815260200160002060000160009054906101000a900460ff1662001136576040517f08c379a00000000000000000000000000000000000000000000000000000000081526004016200112d9062003457565b60405180910390fd5b600073ffffffffffffffffffffffffffffffffffffffff166008600083815260200190815260200160002060020160009054906101000a900473ffffffffffffffffffffffffffffffffffffffff1673ffffffffffffffffffffffffffffffffffffffff1603620011de576040517f08c379a0000000000000000000000000000000000000000000000000000000008152600401620011d590620034c9565b60405180910390fd5b6008600082815260200190815260200160002060020160009054906101000a900473ffffffffffffffffffffffffffffffffffffffff1673ffffffffffffffffffffffffffffffffffffffff1663d7bb99ba346040518263ffffffff1660e01b81526004016000604051808303818588803b1580156200125d57600080fd5b505af115801562001272573d6000803e3d6000fd5b5050505050600760003373ffffffffffffffffffffffffffffffffffffffff1673ffffffffffffffffffffffffffffffffffffffff168152602001908152602001600020600101819080600181540180825580915050600190039060005260206000200160009091909190915055803373ffffffffffffffffffffffffffffffffffffffff167f07a622fd0ce30a71c3f8d8b935ff660b8622b9dc3b9afa00aa2625bb60fef65560405160405180910390a350565b606060018054620013389062002ea9565b80601f0160208091040260200160405190810160405280929190818152602001828054620013669062002ea9565b8015620013b75780601f106200138b57610100808354040283529160200191620013b7565b820191906000526020600020905b8154815290600101906020018083116200139957829003601f168201915b5050505050905090565b620013d7620013cf620017d0565b838362001a2f565b5050565b60076020528060005260406000206000915090508060000160009054906101000a900460ff16905081565b62001413848484620009ba565b620014218484848462001ba3565b50505050565b6060620014348262001706565b5060006200144162001d6b565b9050600081511162001463576040518060200160405280600081525062001492565b806200146f8462001d82565b604051602001620014829291906200352d565b6040516020818303038152906040525b915050919050565b6060600660008373ffffffffffffffffffffffffffffffffffffffff1673ffffffffffffffffffffffffffffffffffffffff1681526020019081526020016000206001018054806020026020016040519081016040528092919081815260200182805480156200156057602002820191906000526020600020905b8160009054906101000a900473ffffffffffffffffffffffffffffffffffffffff1673ffffffffffffffffffffffffffffffffffffffff168152602001906001019080831162001515575b50505050509050919050565b6060600760008373ffffffffffffffffffffffffffffffffffffffff1673ffffffffffffffffffffffffffffffffffffffff168152602001908152602001600020600101805480602002602001604051908101604052809291908181526020018280548015620015fc57602002820191906000526020600020905b815481526020019060010190808311620015e7575b50505050509050919050565b6000600560008473ffffffffffffffffffffffffffffffffffffffff1673ffffffffffffffffffffffffffffffffffffffff16815260200190815260200160002060008373ffffffffffffffffffffffffffffffffffffffff1673ffffffffffffffffffffffffffffffffffffffff16815260200190815260200160002060009054906101000a900460ff16905092915050565b60007f01ffc9a7000000000000000000000000000000000000000000000000000000007bffffffffffffffffffffffffffffffffffffffffffffffffffffffff1916827bffffffffffffffffffffffffffffffffffffffffffffffffffffffff1916149050919050565b600080620017148362001e5b565b9050600073ffffffffffffffffffffffffffffffffffffffff168173ffffffffffffffffffffffffffffffffffffffff16036200178a57826040517f7e2732890000000000000000000000000000000000000000000000000000000081526004016200178191906200286d565b60405180910390fd5b80915050919050565b60006004600083815260200190815260200160002060009054906101000a900473ffffffffffffffffffffffffffffffffffffffff169050919050565b600033905090565b620017e7838383600162001e98565b505050565b600080620017fa8462001e5b565b9050600073ffffffffffffffffffffffffffffffffffffffff168373ffffffffffffffffffffffffffffffffffffffff16146200183f576200183e81848662002069565b5b600073ffffffffffffffffffffffffffffffffffffffff168173ffffffffffffffffffffffffffffffffffffffff1614620018d3576200188460008560008062001e98565b6001600360008373ffffffffffffffffffffffffffffffffffffffff1673ffffffffffffffffffffffffffffffffffffffff168152602001908152602001600020600082825403925050819055505b600073ffffffffffffffffffffffffffffffffffffffff168573ffffffffffffffffffffffffffffffffffffffff161462001957576001600360008773ffffffffffffffffffffffffffffffffffffffff1673ffffffffffffffffffffffffffffffffffffffff168152602001908152602001600020600082825401925050819055505b846002600086815260200190815260200160002060006101000a81548173ffffffffffffffffffffffffffffffffffffffff021916908373ffffffffffffffffffffffffffffffffffffffff160217905550838573ffffffffffffffffffffffffffffffffffffffff168273ffffffffffffffffffffffffffffffffffffffff167fddf252ad1be2c89b69c2b068fc378daa952ba7f163c4a11628f55a4df523b3ef60405160405180910390a4809150509392505050565b62001a2b82826040518060200160405280600081525062002135565b5050565b600073ffffffffffffffffffffffffffffffffffffffff168273ffffffffffffffffffffffffffffffffffffffff160362001aa357816040517f5b08ba1800000000000000000000000000000000000000000000000000000000815260040162001a9a919062002748565b60405180910390fd5b80600560008573ffffffffffffffffffffffffffffffffffffffff1673ffffffffffffffffffffffffffffffffffffffff16815260200190815260200160002060008473ffffffffffffffffffffffffffffffffffffffff1673ffffffffffffffffffffffffffffffffffffffff16815260200190815260200160002060006101000a81548160ff0219169083151502179055508173ffffffffffffffffffffffffffffffffffffffff168373ffffffffffffffffffffffffffffffffffffffff167f17307eab39ab6107e8899845ad3d59bd9653f200f220920489ca2b5937696c318360405162001b96919062002558565b60405180910390a3505050565b60008373ffffffffffffffffffffffffffffffffffffffff163b111562001d65578273ffffffffffffffffffffffffffffffffffffffff1663150b7a0262001bea620017d0565b8685856040518563ffffffff1660e01b815260040162001c0e9493929190620035b2565b6020604051808303816000875af192505050801562001c4d57506040513d601f19601f8201168201806040525081019062001c4a91906200361d565b60015b62001cd7573d806000811462001c80576040519150601f19603f3d011682016040523d82523d6000602084013e62001c85565b606091505b50600081510362001ccf57836040517f64a0ae9200000000000000000000000000000000000000000000000000000000815260040162001cc6919062002748565b60405180910390fd5b805181602001fd5b63150b7a0260e01b7bffffffffffffffffffffffffffffffffffffffffffffffffffffffff1916817bffffffffffffffffffffffffffffffffffffffffffffffffffffffff19161462001d6357836040517f64a0ae9200000000000000000000000000000000000000000000000000000000815260040162001d5a919062002748565b60405180910390fd5b505b50505050565b606060405180602001604052806000815250905090565b60606000600162001d938462002155565b01905060008167ffffffffffffffff81111562001db55762001db462002894565b5b6040519080825280601f01601f19166020018201604052801562001de85781602001600182028036833780820191505090505b509050600082602001820190505b60011562001e50578080600190039150507f3031323334353637383961626364656600000000000000000000000000000000600a86061a8153600a858162001e435762001e426200364f565b5b0494506000850362001df6575b819350505050919050565b60006002600083815260200190815260200160002060009054906101000a900473ffffffffffffffffffffffffffffffffffffffff169050919050565b808062001ed25750600073ffffffffffffffffffffffffffffffffffffffff168273ffffffffffffffffffffffffffffffffffffffff1614155b156200201157600062001ee58462001706565b9050600073ffffffffffffffffffffffffffffffffffffffff168373ffffffffffffffffffffffffffffffffffffffff161415801562001f5157508273ffffffffffffffffffffffffffffffffffffffff168173ffffffffffffffffffffffffffffffffffffffff1614155b801562001f67575062001f65818462001608565b155b1562001fac57826040517fa9fbf51f00000000000000000000000000000000000000000000000000000000815260040162001fa3919062002748565b60405180910390fd5b81156200200f57838573ffffffffffffffffffffffffffffffffffffffff168273ffffffffffffffffffffffffffffffffffffffff167f8c5be1e5ebec7d5bd14f71427d1e84f3dd0314c0f7b2291e5b200ac8c7c3b92560405160405180910390a45b505b836004600085815260200190815260200160002060006101000a81548173ffffffffffffffffffffffffffffffffffffffff021916908373ffffffffffffffffffffffffffffffffffffffff16021790555050505050565b62002076838383620022c1565b6200213057600073ffffffffffffffffffffffffffffffffffffffff168373ffffffffffffffffffffffffffffffffffffffff1603620020ef57806040517f7e273289000000000000000000000000000000000000000000000000000000008152600401620020e691906200286d565b60405180910390fd5b81816040517f177e802f0000000000000000000000000000000000000000000000000000000081526004016200212792919062003368565b60405180910390fd5b505050565b62002141838362002389565b62002150600084848462001ba3565b505050565b600080600090507a184f03e93ff9f4daa797ed6e38ed64bf6a1f0100000000000000008310620021b7577a184f03e93ff9f4daa797ed6e38ed64bf6a1f0100000000000000008381620021ad57620021ac6200364f565b5b0492506040810190505b6d04ee2d6d415b85acef81000000008310620021f8576d04ee2d6d415b85acef81000000008381620021ee57620021ed6200364f565b5b0492506020810190505b662386f26fc1000083106200222b57662386f26fc1000083816200222157620022206200364f565b5b0492506010810190505b6305f5e100831062002258576305f5e10083816200224e576200224d6200364f565b5b0492506008810190505b6127108310620022815761271083816200227757620022766200364f565b5b0492506004810190505b60648310620022a857606483816200229e576200229d6200364f565b5b0492506002810190505b600a8310620022b8576001810190505b80915050919050565b60008073ffffffffffffffffffffffffffffffffffffffff168373ffffffffffffffffffffffffffffffffffffffff16141580156200238057508273ffffffffffffffffffffffffffffffffffffffff168473ffffffffffffffffffffffffffffffffffffffff1614806200233e57506200233d848462001608565b5b806200237f57508273ffffffffffffffffffffffffffffffffffffffff16620023678362001793565b73ffffffffffffffffffffffffffffffffffffffff16145b5b90509392505050565b600073ffffffffffffffffffffffffffffffffffffffff168273ffffffffffffffffffffffffffffffffffffffff1603620023fe5760006040517f64a0ae92000000000000000000000000000000000000000000000000000000008152600401620023f5919062002748565b60405180910390fd5b60006200240e83836000620017ec565b9050600073ffffffffffffffffffffffffffffffffffffffff168173ffffffffffffffffffffffffffffffffffffffff1614620024855760006040517f73c6ac6e0000000000000000000000000000000000000000000000000000000081526004016200247c919062002748565b60405180910390fd5b505050565b612339806200367f83390190565b6000604051905090565b600080fd5b600080fd5b60007fffffffff0000000000000000000000000000000000000000000000000000000082169050919050565b620024e381620024ac565b8114620024ef57600080fd5b50565b6000813590506200250381620024d8565b92915050565b600060208284031215620025225762002521620024a2565b5b60006200253284828501620024f2565b91505092915050565b60008115159050919050565b62002552816200253b565b82525050565b60006020820190506200256f600083018462002547565b92915050565b600073ffffffffffffffffffffffffffffffffffffffff82169050919050565b6000620025a28262002575565b9050919050565b620025b48162002595565b8114620025c057600080fd5b50565b600081359050620025d481620025a9565b92915050565b600060208284031215620025f357620025f2620024a2565b5b60006200260384828501620025c3565b91505092915050565b600081519050919050565b600082825260208201905092915050565b60005b83811015620026485780820151818401526020810190506200262b565b60008484015250505050565b6000601f19601f8301169050919050565b600062002672826200260c565b6200267e818562002617565b93506200269081856020860162002628565b6200269b8162002654565b840191505092915050565b60006020820190508181036000830152620026c2818462002665565b905092915050565b6000819050919050565b620026df81620026ca565b8114620026eb57600080fd5b50565b600081359050620026ff81620026d4565b92915050565b6000602082840312156200271e576200271d620024a2565b5b60006200272e84828501620026ee565b91505092915050565b620027428162002595565b82525050565b60006020820190506200275f600083018462002737565b92915050565b600080604083850312156200277f576200277e620024a2565b5b60006200278f85828601620025c3565b9250506020620027a285828601620026ee565b9150509250929050565b620027b781620026ca565b82525050565b60006080820190508181036000830152620027d9818762002665565b9050620027ea6020830186620027ac565b620027f9604083018562002737565b620028086060830184620027ac565b95945050505050565b6000806000606084860312156200282d576200282c620024a2565b5b60006200283d86828701620025c3565b93505060206200285086828701620025c3565b92505060406200286386828701620026ee565b9150509250925092565b6000602082019050620028846000830184620027ac565b92915050565b600080fd5b600080fd5b7f4e487b7100000000000000000000000000000000000000000000000000000000600052604160045260246000fd5b620028ce8262002654565b810181811067ffffffffffffffff82111715620028f057620028ef62002894565b5b80604052505050565b60006200290562002498565b9050620029138282620028c3565b919050565b600067ffffffffffffffff82111562002936576200293562002894565b5b620029418262002654565b9050602081019050919050565b82818337600083830152505050565b6000620029746200296e8462002918565b620028f9565b9050828152602081018484840111156200299357620029926200288f565b5b620029a08482856200294e565b509392505050565b600082601f830112620029c057620029bf6200288a565b5b8135620029d28482602086016200295d565b91505092915050565b60008060408385031215620029f557620029f4620024a2565b5b600083013567ffffffffffffffff81111562002a165762002a15620024a7565b5b62002a2485828601620029a8565b925050602062002a3785828601620026ee565b9150509250929050565b60006020828403121562002a5a5762002a59620024a2565b5b600082013567ffffffffffffffff81111562002a7b5762002a7a620024a7565b5b62002a8984828501620029a8565b91505092915050565b62002a9d816200253b565b811462002aa957600080fd5b50565b60008135905062002abd8162002a92565b92915050565b6000806040838503121562002add5762002adc620024a2565b5b600062002aed85828601620025c3565b925050602062002b008582860162002aac565b9150509250929050565b600067ffffffffffffffff82111562002b285762002b2762002894565b5b62002b338262002654565b9050602081019050919050565b600062002b5762002b518462002b0a565b620028f9565b90508281526020810184848401111562002b765762002b756200288f565b5b62002b838482856200294e565b509392505050565b600082601f83011262002ba35762002ba26200288a565b5b813562002bb584826020860162002b40565b91505092915050565b6000806000806080858703121562002bdb5762002bda620024a2565b5b600062002beb87828801620025c3565b945050602062002bfe87828801620025c3565b935050604062002c1187828801620026ee565b925050606085013567ffffffffffffffff81111562002c355762002c34620024a7565b5b62002c438782880162002b8b565b91505092959194509250565b600081519050919050565b600082825260208201905092915050565b6000819050602082019050919050565b62002c868162002595565b82525050565b600062002c9a838362002c7b565b60208301905092915050565b6000602082019050919050565b600062002cc08262002c4f565b62002ccc818562002c5a565b935062002cd98362002c6b565b8060005b8381101562002d1057815162002cf4888262002c8c565b975062002d018362002ca6565b92505060018101905062002cdd565b5085935050505092915050565b6000602082019050818103600083015262002d39818462002cb3565b905092915050565b600081519050919050565b600082825260208201905092915050565b6000819050602082019050919050565b62002d7881620026ca565b82525050565b600062002d8c838362002d6d565b60208301905092915050565b6000602082019050919050565b600062002db28262002d41565b62002dbe818562002d4c565b935062002dcb8362002d5d565b8060005b8381101562002e0257815162002de6888262002d7e565b975062002df38362002d98565b92505060018101905062002dcf565b5085935050505092915050565b6000602082019050818103600083015262002e2b818462002da5565b905092915050565b6000806040838503121562002e4d5762002e4c620024a2565b5b600062002e5d85828601620025c3565b925050602062002e7085828601620025c3565b9150509250929050565b7f4e487b7100000000000000000000000000000000000000000000000000000000600052602260045260246000fd5b6000600282049050600182168062002ec257607f821691505b60208210810362002ed85762002ed762002e7a565b5b50919050565b600060608201905062002ef5600083018662002737565b62002f046020830185620027ac565b62002f13604083018462002737565b949350505050565b7f416c726561647920726567697374657265640000000000000000000000000000600082015250565b600062002f5360128362002617565b915062002f608262002f1b565b602082019050919050565b6000602082019050818103600083015262002f868162002f44565b9050919050565b7f4e6f742072656769737465726564206173206172746973740000000000000000600082015250565b600062002fc560188362002617565b915062002fd28262002f8d565b602082019050919050565b6000602082019050818103600083015262002ff88162002fb6565b9050919050565b7f4e487b7100000000000000000000000000000000000000000000000000000000600052601160045260246000fd5b60006200303b82620026ca565b91507fffffffffffffffffffffffffffffffffffffffffffffffffffffffffffffffff820362003070576200306f62002fff565b5b600182019050919050565b6000604082019050818103600083015262003097818562002665565b9050620030a86020830184620027ac565b9392505050565b60008190508160005260206000209050919050565b60006020601f8301049050919050565b600082821b905092915050565b600060088302620031137fffffffffffffffffffffffffffffffffffffffffffffffffffffffffffffffff82620030d4565b6200311f8683620030d4565b95508019841693508086168417925050509392505050565b6000819050919050565b6000620031626200315c6200315684620026ca565b62003137565b620026ca565b9050919050565b6000819050919050565b6200317e8362003141565b620031966200318d8262003169565b848454620030e1565b825550505050565b600090565b620031ad6200319e565b620031ba81848462003173565b505050565b5b81811015620031e257620031d6600082620031a3565b600181019050620031c0565b5050565b601f8211156200323157620031fb81620030af565b6200320684620030c4565b8101602085101562003216578190505b6200322e6200322585620030c4565b830182620031bf565b50505b505050565b600082821c905092915050565b6000620032566000198460080262003236565b1980831691505092915050565b600062003271838362003243565b9150826002028217905092915050565b6200328c826200260c565b67ffffffffffffffff811115620032a857620032a762002894565b5b620032b4825462002ea9565b620032c1828285620031e6565b600060209050601f831160018114620032f95760008415620032e4578287015190505b620032f0858262003263565b86555062003360565b601f1984166200330986620030af565b60005b8281101562003333578489015182556001820191506020850194506020810190506200330c565b868310156200335357848901516200334f601f89168262003243565b8355505b6001600288020188555050505b505050505050565b60006040820190506200337f600083018562002737565b6200338e6020830184620027ac565b9392505050565b7f416c726561647920726567697374657265642061732061727469737400000000600082015250565b6000620033cd601c8362002617565b9150620033da8262003395565b602082019050919050565b600060208201905081810360008301526200340081620033be565b9050919050565b7f55736572206e6f74207265676973746572656400000000000000000000000000600082015250565b60006200343f60138362002617565b91506200344c8262003407565b602082019050919050565b60006020820190508181036000830152620034728162003430565b9050919050565b7f50726f6a65637420646f6573206e6f7420657869737400000000000000000000600082015250565b6000620034b160168362002617565b9150620034be8262003479565b602082019050919050565b60006020820190508181036000830152620034e481620034a2565b9050919050565b600081905092915050565b600062003503826200260c565b6200350f8185620034eb565b93506200352181856020860162002628565b80840191505092915050565b60006200353b8285620034f6565b9150620035498284620034f6565b91508190509392505050565b600081519050919050565b600082825260208201905092915050565b60006200357e8262003555565b6200358a818562003560565b93506200359c81856020860162002628565b620035a78162002654565b840191505092915050565b6000608082019050620035c9600083018762002737565b620035d8602083018662002737565b620035e76040830185620027ac565b8181036060830152620035fb818462003571565b905095945050505050565b6000815190506200361781620024d8565b92915050565b600060208284031215620036365762003635620024a2565b5b6000620036468482850162003606565b91505092915050565b7f4e487b7100000000000000000000000000000000000000000000000000000000600052601260045260246000fdfe60806040523480156200001157600080fd5b5060405162002339380380620023398339818101604052810190620000379190620002a6565b816040518060400160405280600381526020017f415254000000000000000000000000000000000000000000000000000000000081525081600390816200007f91906200054d565b5080600490816200009191906200054d565b5050508160059081620000a591906200054d565b508060068190555060006007819055506000600860006101000a81548160ff021916908315150217905550505062000634565b6000604051905090565b600080fd5b600080fd5b600080fd5b600080fd5b6000601f19601f8301169050919050565b7f4e487b7100000000000000000000000000000000000000000000000000000000600052604160045260246000fd5b6200014182620000f6565b810181811067ffffffffffffffff8211171562000163576200016262000107565b5b80604052505050565b600062000178620000d8565b905062000186828262000136565b919050565b600067ffffffffffffffff821115620001a957620001a862000107565b5b620001b482620000f6565b9050602081019050919050565b60005b83811015620001e1578082015181840152602081019050620001c4565b60008484015250505050565b600062000204620001fe846200018b565b6200016c565b905082815260208101848484011115620002235762000222620000f1565b5b62000230848285620001c1565b509392505050565b600082601f83011262000250576200024f620000ec565b5b815162000262848260208601620001ed565b91505092915050565b6000819050919050565b62000280816200026b565b81146200028c57600080fd5b50565b600081519050620002a08162000275565b92915050565b60008060408385031215620002c057620002bf620000e2565b5b600083015167ffffffffffffffff811115620002e157620002e0620000e7565b5b620002ef8582860162000238565b925050602062000302858286016200028f565b9150509250929050565b600081519050919050565b7f4e487b7100000000000000000000000000000000000000000000000000000000600052602260045260246000fd5b600060028204905060018216806200035f57607f821691505b60208210810362000375576200037462000317565b5b50919050565b60008190508160005260206000209050919050565b60006020601f8301049050919050565b600082821b905092915050565b600060088302620003df7fffffffffffffffffffffffffffffffffffffffffffffffffffffffffffffffff82620003a0565b620003eb8683620003a0565b95508019841693508086168417925050509392505050565b6000819050919050565b60006200042e6200042862000422846200026b565b62000403565b6200026b565b9050919050565b6000819050919050565b6200044a836200040d565b62000462620004598262000435565b848454620003ad565b825550505050565b600090565b620004796200046a565b620004868184846200043f565b505050565b5b81811015620004ae57620004a26000826200046f565b6001810190506200048c565b5050565b601f821115620004fd57620004c7816200037b565b620004d28462000390565b81016020851015620004e2578190505b620004fa620004f18562000390565b8301826200048b565b50505b505050565b600082821c905092915050565b6000620005226000198460080262000502565b1980831691505092915050565b60006200053d83836200050f565b9150826002028217905092915050565b62000558826200030c565b67ffffffffffffffff81111562000574576200057362000107565b5b62000580825462000346565b6200058d828285620004b2565b600060209050601f831160018114620005c55760008415620005b0578287015190505b620005bc85826200052f565b8655506200062c565b601f198416620005d5866200037b565b60005b82811015620005ff57848901518255600182019150602085019450602081019050620005d8565b868310156200061f57848901516200061b601f8916826200050f565b8355505b6001600288020188555050505b505050505050565b611cf580620006446000396000f3fe60806040526004361061011f5760003560e01c80637a3a0e84116100a0578063ad044f4911610064578063ad044f49146103ed578063d7bb99ba14610418578063dd62ed3e14610422578063eb6c197c1461045f578063f2580fa71461048a5761011f565b80637a3a0e84146103045780638da5cb5b1461032f57806395d89b411461035a5780639a33e30014610385578063a9059cbb146103b05761011f565b8063313ce567116100e7578063313ce5671461020b5780633c24b7d71461023657806342e94c901461027357806370a08231146102b0578063766a217d146102ed5761011f565b806306fdde0314610124578063095ea7b31461014f57806318160ddd1461018c57806323b872dd146101b757806324600fc3146101f4575b600080fd5b34801561013057600080fd5b506101396104b5565b6040516101469190611514565b60405180910390f35b34801561015b57600080fd5b50610176600480360381019061017191906115cf565b610547565b604051610183919061162a565b60405180910390f35b34801561019857600080fd5b506101a161056a565b6040516101ae9190611654565b60405180910390f35b3480156101c357600080fd5b506101de60048036038101906101d9919061166f565b610574565b6040516101eb919061162a565b60405180910390f35b34801561020057600080fd5b506102096105a3565b005b34801561021757600080fd5b506102206106ed565b60405161022d91906116de565b60405180910390f35b34801561024257600080fd5b5061025d600480360381019061025891906116f9565b6106f6565b60405161026a9190611735565b60405180910390f35b34801561027f57600080fd5b5061029a60048036038101906102959190611750565b610735565b6040516102a79190611654565b60405180910390f35b3480156102bc57600080fd5b506102d760048036038101906102d29190611750565b61074d565b6040516102e49190611654565b60405180910390f35b3480156102f957600080fd5b50610302610795565b005b34801561031057600080fd5b506103196109c6565b6040516103269190611654565b60405180910390f35b34801561033b57600080fd5b506103446109cc565b6040516103519190611735565b60405180910390f35b34801561036657600080fd5b5061036f6109f2565b60405161037c9190611514565b60405180910390f35b34801561039157600080fd5b5061039a610a84565b6040516103a79190611514565b60405180910390f35b3480156103bc57600080fd5b506103d760048036038101906103d291906115cf565b610b12565b6040516103e4919061162a565b60405180910390f35b3480156103f957600080fd5b50610402610b35565b60405161040f9190611654565b60405180910390f35b610420610b3b565b005b34801561042e57600080fd5b506104496004803603810190610444919061177d565b610dc4565b6040516104569190611654565b60405180910390f35b34801561046b57600080fd5b50610474610e4b565b604051610481919061162a565b60405180910390f35b34801561049657600080fd5b5061049f610e5e565b6040516104ac9190611654565b60405180910390f35b6060600380546104c4906117ec565b80601f01602080910402602001604051908101604052809291908181526020018280546104f0906117ec565b801561053d5780601f106105125761010080835404028352916020019161053d565b820191906000526020600020905b81548152906001019060200180831161052057829003601f168201915b5050505050905090565b600080610552610e64565b905061055f818585610e6c565b600191505092915050565b6000600254905090565b60008061057f610e64565b905061058c858285610e7e565b610597858585610f12565b60019150509392505050565b600860019054906101000a900473ffffffffffffffffffffffffffffffffffffffff1673ffffffffffffffffffffffffffffffffffffffff163373ffffffffffffffffffffffffffffffffffffffff1614610633576040517f08c379a000000000000000000000000000000000000000000000000000000000815260040161062a9061188f565b60405180910390fd5b600860009054906101000a900460ff16610682576040517f08c379a0000000000000000000000000000000000000000000000000000000008152600401610679906118fb565b60405180910390fd5b600860019054906101000a900473ffffffffffffffffffffffffffffffffffffffff1673ffffffffffffffffffffffffffffffffffffffff166108fc479081150290604051600060405180830381858888f193505050501580156106ea573d6000803e3d6000fd5b50565b60006012905090565b600b818154811061070657600080fd5b906000526020600020016000915054906101000a900473ffffffffffffffffffffffffffffffffffffffff1681565b600a6020528060005260406000206000915090505481565b60008060008373ffffffffffffffffffffffffffffffffffffffff1673ffffffffffffffffffffffffffffffffffffffff168152602001908152602001600020549050919050565b600860009054906101000a900460ff166107e4576040517f08c379a00000000000000000000000000000000000000000000000000000000081526004016107db9061198d565b60405180910390fd5b6000600a60003373ffffffffffffffffffffffffffffffffffffffff1673ffffffffffffffffffffffffffffffffffffffff1681526020019081526020016000205411610866576040517f08c379a000000000000000000000000000000000000000000000000000000000815260040161085d906119f9565b60405180910390fd5b60006009540361087f5761087861056a565b6009819055505b6000600a60003373ffffffffffffffffffffffffffffffffffffffff1673ffffffffffffffffffffffffffffffffffffffff1681526020019081526020016000205490506000600754600954836108d69190611a48565b6108e09190611ab9565b905060008111610925576040517f08c379a000000000000000000000000000000000000000000000000000000000815260040161091c90611b36565b60405180910390fd5b6000600a60003373ffffffffffffffffffffffffffffffffffffffff1673ffffffffffffffffffffffffffffffffffffffff168152602001908152602001600020819055506109743382611006565b3373ffffffffffffffffffffffffffffffffffffffff167f16b0da2ffcb90c6723317bd637d9aad7f04711f42bbe0ac0918ebe10f1f9001c826040516109ba9190611654565b60405180910390a25050565b60065481565b600860019054906101000a900473ffffffffffffffffffffffffffffffffffffffff1681565b606060048054610a01906117ec565b80601f0160208091040260200160405190810160405280929190818152602001828054610a2d906117ec565b8015610a7a5780601f10610a4f57610100808354040283529160200191610a7a565b820191906000526020600020905b815481529060010190602001808311610a5d57829003601f168201915b5050505050905090565b60058054610a91906117ec565b80601f0160208091040260200160405190810160405280929190818152602001828054610abd906117ec565b8015610b0a5780601f10610adf57610100808354040283529160200191610b0a565b820191906000526020600020905b815481529060010190602001808311610aed57829003601f168201915b505050505081565b600080610b1d610e64565b9050610b2a818585610f12565b600191505092915050565b60075481565b60003411610b7e576040517f08c379a0000000000000000000000000000000000000000000000000000000008152600401610b7590611bc8565b60405180910390fd5b600860009054906101000a900460ff1615610bce576040517f08c379a0000000000000000000000000000000000000000000000000000000008152600401610bc590611c34565b60405180910390fd5b6000600a60003373ffffffffffffffffffffffffffffffffffffffff1673ffffffffffffffffffffffffffffffffffffffff1681526020019081526020016000205403610c7957600b339080600181540180825580915050600190039060005260206000200160009091909190916101000a81548173ffffffffffffffffffffffffffffffffffffffff021916908373ffffffffffffffffffffffffffffffffffffffff1602179055505b34600a60003373ffffffffffffffffffffffffffffffffffffffff1673ffffffffffffffffffffffffffffffffffffffff1681526020019081526020016000206000828254610cc89190611c54565b925050819055503460076000828254610ce19190611c54565b925050819055503373ffffffffffffffffffffffffffffffffffffffff167f5af8184bef8e4b45eb9f6ed7734d04da38ced226495548f46e0c8ff8d7d9a52434604051610d2e9190611654565b60405180910390a260065460075410610dc2576001600860006101000a81548160ff021916908315150217905550600860019054906101000a900473ffffffffffffffffffffffffffffffffffffffff1673ffffffffffffffffffffffffffffffffffffffff167f032d0b6fb0b369dd3d7406088b1b3ca11d9d7783039824774cf780292a22373760405160405180910390a25b565b6000600160008473ffffffffffffffffffffffffffffffffffffffff1673ffffffffffffffffffffffffffffffffffffffff16815260200190815260200160002060008373ffffffffffffffffffffffffffffffffffffffff1673ffffffffffffffffffffffffffffffffffffffff16815260200190815260200160002054905092915050565b600860009054906101000a900460ff1681565b60095481565b600033905090565b610e798383836001611088565b505050565b6000610e8a8484610dc4565b90507fffffffffffffffffffffffffffffffffffffffffffffffffffffffffffffffff8114610f0c5781811015610efc578281836040517ffb8f41b2000000000000000000000000000000000000000000000000000000008152600401610ef393929190611c88565b60405180910390fd5b610f0b84848484036000611088565b5b50505050565b600073ffffffffffffffffffffffffffffffffffffffff168373ffffffffffffffffffffffffffffffffffffffff1603610f845760006040517f96c6fd1e000000000000000000000000000000000000000000000000000000008152600401610f7b9190611735565b60405180910390fd5b600073ffffffffffffffffffffffffffffffffffffffff168273ffffffffffffffffffffffffffffffffffffffff1603610ff65760006040517fec442f05000000000000000000000000000000000000000000000000000000008152600401610fed9190611735565b60405180910390fd5b61100183838361125f565b505050565b600073ffffffffffffffffffffffffffffffffffffffff168273ffffffffffffffffffffffffffffffffffffffff16036110785760006040517fec442f0500000000000000000000000000000000000000000000000000000000815260040161106f9190611735565b60405180910390fd5b6110846000838361125f565b5050565b600073ffffffffffffffffffffffffffffffffffffffff168473ffffffffffffffffffffffffffffffffffffffff16036110fa5760006040517fe602df050000000000000000000000000000000000000000000000000000000081526004016110f19190611735565b60405180910390fd5b600073ffffffffffffffffffffffffffffffffffffffff168373ffffffffffffffffffffffffffffffffffffffff160361116c5760006040517f94280d620000000000000000000000000000000000000000000000000000000081526004016111639190611735565b60405180910390fd5b81600160008673ffffffffffffffffffffffffffffffffffffffff1673ffffffffffffffffffffffffffffffffffffffff16815260200190815260200160002060008573ffffffffffffffffffffffffffffffffffffffff1673ffffffffffffffffffffffffffffffffffffffff168152602001908152602001600020819055508015611259578273ffffffffffffffffffffffffffffffffffffffff168473ffffffffffffffffffffffffffffffffffffffff167f8c5be1e5ebec7d5bd14f71427d1e84f3dd0314c0f7b2291e5b200ac8c7c3b925846040516112509190611654565b60405180910390a35b50505050565b600073ffffffffffffffffffffffffffffffffffffffff168373ffffffffffffffffffffffffffffffffffffffff16036112b15780600260008282546112a59190611c54565b92505081905550611384565b60008060008573ffffffffffffffffffffffffffffffffffffffff1673ffffffffffffffffffffffffffffffffffffffff1681526020019081526020016000205490508181101561133d578381836040517fe450d38c00000000000000000000000000000000000000000000000000000000815260040161133493929190611c88565b60405180910390fd5b8181036000808673ffffffffffffffffffffffffffffffffffffffff1673ffffffffffffffffffffffffffffffffffffffff16815260200190815260200160002081905550505b600073ffffffffffffffffffffffffffffffffffffffff168273ffffffffffffffffffffffffffffffffffffffff16036113cd578060026000828254039250508190555061141a565b806000808473ffffffffffffffffffffffffffffffffffffffff1673ffffffffffffffffffffffffffffffffffffffff168152602001908152602001600020600082825401925050819055505b8173ffffffffffffffffffffffffffffffffffffffff168373ffffffffffffffffffffffffffffffffffffffff167fddf252ad1be2c89b69c2b068fc378daa952ba7f163c4a11628f55a4df523b3ef836040516114779190611654565b60405180910390a3505050565b600081519050919050565b600082825260208201905092915050565b60005b838110156114be5780820151818401526020810190506114a3565b60008484015250505050565b6000601f19601f8301169050919050565b60006114e682611484565b6114f0818561148f565b93506115008185602086016114a0565b611509816114ca565b840191505092915050565b6000602082019050818103600083015261152e81846114db565b905092915050565b600080fd5b600073ffffffffffffffffffffffffffffffffffffffff82169050919050565b60006115668261153b565b9050919050565b6115768161155b565b811461158157600080fd5b50565b6000813590506115938161156d565b92915050565b6000819050919050565b6115ac81611599565b81146115b757600080fd5b50565b6000813590506115c9816115a3565b92915050565b600080604083850312156115e6576115e5611536565b5b60006115f485828601611584565b9250506020611605858286016115ba565b9150509250929050565b60008115159050919050565b6116248161160f565b82525050565b600060208201905061163f600083018461161b565b92915050565b61164e81611599565b82525050565b60006020820190506116696000830184611645565b92915050565b60008060006060848603121561168857611687611536565b5b600061169686828701611584565b93505060206116a786828701611584565b92505060406116b8868287016115ba565b9150509250925092565b600060ff82169050919050565b6116d8816116c2565b82525050565b60006020820190506116f360008301846116cf565b92915050565b60006020828403121561170f5761170e611536565b5b600061171d848285016115ba565b91505092915050565b61172f8161155b565b82525050565b600060208201905061174a6000830184611726565b92915050565b60006020828403121561176657611765611536565b5b600061177484828501611584565b91505092915050565b6000806040838503121561179457611793611536565b5b60006117a285828601611584565b92505060206117b385828601611584565b9150509250929050565b7f4e487b7100000000000000000000000000000000000000000000000000000000600052602260045260246000fd5b6000600282049050600182168061180457607f821691505b602082108103611817576118166117bd565b5b50919050565b7f4f6e6c7920746865206f776e65722063616e2077697468647261772066756e6460008201527f7300000000000000000000000000000000000000000000000000000000000000602082015250565b600061187960218361148f565b91506118848261181d565b604082019050919050565b600060208201905081810360008301526118a88161186c565b9050919050565b7f46756e64696e6720676f616c206e6f7420726561636865640000000000000000600082015250565b60006118e560188361148f565b91506118f0826118af565b602082019050919050565b60006020820190508181036000830152611914816118d8565b9050919050565b7f546f6b656e7320617265206e6f7420726561647920666f72206469737472696260008201527f7574696f6e000000000000000000000000000000000000000000000000000000602082015250565b600061197760258361148f565b91506119828261191b565b604082019050919050565b600060208201905081810360008301526119a68161196a565b9050919050565b7f4e6f20636f6e747269627574696f6e20666f756e640000000000000000000000600082015250565b60006119e360158361148f565b91506119ee826119ad565b602082019050919050565b60006020820190508181036000830152611a12816119d6565b9050919050565b7f4e487b7100000000000000000000000000000000000000000000000000000000600052601160045260246000fd5b6000611a5382611599565b9150611a5e83611599565b9250828202611a6c81611599565b91508282048414831517611a8357611a82611a19565b5b5092915050565b7f4e487b7100000000000000000000000000000000000000000000000000000000600052601260045260246000fd5b6000611ac482611599565b9150611acf83611599565b925082611adf57611ade611a8a565b5b828204905092915050565b7f4e6f20746f6b656e7320746f2064697374726962757465000000000000000000600082015250565b6000611b2060178361148f565b9150611b2b82611aea565b602082019050919050565b60006020820190508181036000830152611b4f81611b13565b9050919050565b7f436f6e747269627574696f6e206d75737420626520677265617465722074686160008201527f6e207a65726f0000000000000000000000000000000000000000000000000000602082015250565b6000611bb260268361148f565b9150611bbd82611b56565b604082019050919050565b60006020820190508181036000830152611be181611ba5565b9050919050565b7f46756e64696e6720706572696f642068617320656e6465640000000000000000600082015250565b6000611c1e60188361148f565b9150611c2982611be8565b602082019050919050565b60006020820190508181036000830152611c4d81611c11565b9050919050565b6000611c5f82611599565b9150611c6a83611599565b9250828201905080821115611c8257611c81611a19565b5b92915050565b6000606082019050611c9d6000830186611726565b611caa6020830185611645565b611cb76040830184611645565b94935050505056fea26469706673582212201057fee064ca5797148a93e8d3fd801910f63c0efa6797b8a736b1265974aa7c64736f6c63430008180033a2646970667358221220c14a0073984a94b61dba1a7fb2321764bdd2d2d5985d462e6819a08319d46e3764736f6c63430008180033",
  "linkReferences": {},
  "deployedLinkReferences": {}
}