{
  "_format": "hh-sol-artifact-1",
  "contractName": "ProjectContract",
  "sourceName": "contracts/ProjectContract.sol",
  "abi": [
    {
      "inputs": [
        {
          "internalType": "string",
          "name": "_name",
          "type": "string"
        },
        {
          "internalType": "uint256",
          "name": "_goalAmount",
          "type": "uint256"
        }
      ],
      "stateMutability": "nonpayable",
      "type": "constructor"
    },
    {
      "inputs": [
        {
          "internalType": "address",
          "name": "spender",
          "type": "address"
        },
        {
          "internalType": "uint256",
          "name": "allowance",
          "type": "uint256"
        },
        {
          "internalType": "uint256",
          "name": "needed",
          "type": "uint256"
        }
      ],
      "name": "ERC20InsufficientAllowance",
      "type": "error"
    },
    {
      "inputs": [
        {
          "internalType": "address",
          "name": "sender",
          "type": "address"
        },
        {
          "internalType": "uint256",
          "name": "balance",
          "type": "uint256"
        },
        {
          "internalType": "uint256",
          "name": "needed",
          "type": "uint256"
        }
      ],
      "name": "ERC20InsufficientBalance",
      "type": "error"
    },
    {
      "inputs": [
        {
          "internalType": "address",
          "name": "approver",
          "type": "address"
        }
      ],
      "name": "ERC20InvalidApprover",
      "type": "error"
    },
    {
      "inputs": [
        {
          "internalType": "address",
          "name": "receiver",
          "type": "address"
        }
      ],
      "name": "ERC20InvalidReceiver",
      "type": "error"
    },
    {
      "inputs": [
        {
          "internalType": "address",
          "name": "sender",
          "type": "address"
        }
      ],
      "name": "ERC20InvalidSender",
      "type": "error"
    },
    {
      "inputs": [
        {
          "internalType": "address",
          "name": "spender",
          "type": "address"
        }
      ],
      "name": "ERC20InvalidSpender",
      "type": "error"
    },
    {
      "anonymous": false,
      "inputs": [
        {
          "indexed": true,
          "internalType": "address",
          "name": "owner",
          "type": "address"
        },
        {
          "indexed": true,
          "internalType": "address",
          "name": "spender",
          "type": "address"
        },
        {
          "indexed": false,
          "internalType": "uint256",
          "name": "value",
          "type": "uint256"
        }
      ],
      "name": "Approval",
      "type": "event"
    },
    {
      "anonymous": false,
      "inputs": [
        {
          "indexed": true,
          "internalType": "address",
          "name": "supporter",
          "type": "address"
        },
        {
          "indexed": false,
          "internalType": "uint256",
          "name": "amount",
          "type": "uint256"
        }
      ],
      "name": "Funded",
      "type": "event"
    },
    {
      "anonymous": false,
      "inputs": [
        {
          "indexed": true,
          "internalType": "address",
          "name": "artist",
          "type": "address"
        }
      ],
      "name": "GoalReached",
      "type": "event"
    },
    {
      "anonymous": false,
      "inputs": [
        {
          "indexed": true,
          "internalType": "address",
          "name": "supporter",
          "type": "address"
        },
        {
          "indexed": false,
          "internalType": "uint256",
          "name": "amount",
          "type": "uint256"
        }
      ],
      "name": "TokensDistributed",
      "type": "event"
    },
    {
      "anonymous": false,
      "inputs": [
        {
          "indexed": true,
          "internalType": "address",
          "name": "from",
          "type": "address"
        },
        {
          "indexed": true,
          "internalType": "address",
          "name": "to",
          "type": "address"
        },
        {
          "indexed": false,
          "internalType": "uint256",
          "name": "value",
          "type": "uint256"
        }
      ],
      "name": "Transfer",
      "type": "event"
    },
    {
      "inputs": [
        {
          "internalType": "address",
          "name": "owner",
          "type": "address"
        },
        {
          "internalType": "address",
          "name": "spender",
          "type": "address"
        }
      ],
      "name": "allowance",
      "outputs": [
        {
          "internalType": "uint256",
          "name": "",
          "type": "uint256"
        }
      ],
      "stateMutability": "view",
      "type": "function"
    },
    {
      "inputs": [
        {
          "internalType": "address",
          "name": "spender",
          "type": "address"
        },
        {
          "internalType": "uint256",
          "name": "value",
          "type": "uint256"
        }
      ],
      "name": "approve",
      "outputs": [
        {
          "internalType": "bool",
          "name": "",
          "type": "bool"
        }
      ],
      "stateMutability": "nonpayable",
      "type": "function"
    },
    {
      "inputs": [
        {
          "internalType": "address",
          "name": "account",
          "type": "address"
        }
      ],
      "name": "balanceOf",
      "outputs": [
        {
          "internalType": "uint256",
          "name": "",
          "type": "uint256"
        }
      ],
      "stateMutability": "view",
      "type": "function"
    },
    {
      "inputs": [],
      "name": "collectDistribution",
      "outputs": [],
      "stateMutability": "nonpayable",
      "type": "function"
    },
    {
      "inputs": [],
      "name": "contribute",
      "outputs": [],
      "stateMutability": "payable",
      "type": "function"
    },
    {
      "inputs": [
        {
          "internalType": "address",
          "name": "",
          "type": "address"
        }
      ],
      "name": "contributions",
      "outputs": [
        {
          "internalType": "uint256",
          "name": "",
          "type": "uint256"
        }
      ],
      "stateMutability": "view",
      "type": "function"
    },
    {
      "inputs": [],
      "name": "decimals",
      "outputs": [
        {
          "internalType": "uint8",
          "name": "",
          "type": "uint8"
        }
      ],
      "stateMutability": "view",
      "type": "function"
    },
    {
      "inputs": [],
      "name": "fundingGoal",
      "outputs": [
        {
          "internalType": "uint256",
          "name": "",
          "type": "uint256"
        }
      ],
      "stateMutability": "view",
      "type": "function"
    },
    {
      "inputs": [],
      "name": "isTokenDistributed",
      "outputs": [
        {
          "internalType": "bool",
          "name": "",
          "type": "bool"
        }
      ],
      "stateMutability": "view",
      "type": "function"
    },
    {
      "inputs": [],
      "name": "name",
      "outputs": [
        {
          "internalType": "string",
          "name": "",
          "type": "string"
        }
      ],
      "stateMutability": "view",
      "type": "function"
    },
    {
      "inputs": [],
      "name": "owner",
      "outputs": [
        {
          "internalType": "address",
          "name": "",
          "type": "address"
        }
      ],
      "stateMutability": "view",
      "type": "function"
    },
    {
      "inputs": [],
      "name": "projectName",
      "outputs": [
        {
          "internalType": "string",
          "name": "",
          "type": "string"
        }
      ],
      "stateMutability": "view",
      "type": "function"
    },
    {
      "inputs": [
        {
          "internalType": "uint256",
          "name": "",
          "type": "uint256"
        }
      ],
      "name": "supporters",
      "outputs": [
        {
          "internalType": "address",
          "name": "",
          "type": "address"
        }
      ],
      "stateMutability": "view",
      "type": "function"
    },
    {
      "inputs": [],
      "name": "symbol",
      "outputs": [
        {
          "internalType": "string",
          "name": "",
          "type": "string"
        }
      ],
      "stateMutability": "view",
      "type": "function"
    },
    {
      "inputs": [],
      "name": "totalFunded",
      "outputs": [
        {
          "internalType": "uint256",
          "name": "",
          "type": "uint256"
        }
      ],
      "stateMutability": "view",
      "type": "function"
    },
    {
      "inputs": [],
      "name": "totalSupply",
      "outputs": [
        {
          "internalType": "uint256",
          "name": "",
          "type": "uint256"
        }
      ],
      "stateMutability": "view",
      "type": "function"
    },
    {
      "inputs": [],
      "name": "totalSupplyC",
      "outputs": [
        {
          "internalType": "uint256",
          "name": "",
          "type": "uint256"
        }
      ],
      "stateMutability": "view",
      "type": "function"
    },
    {
      "inputs": [
        {
          "internalType": "address",
          "name": "to",
          "type": "address"
        },
        {
          "internalType": "uint256",
          "name": "value",
          "type": "uint256"
        }
      ],
      "name": "transfer",
      "outputs": [
        {
          "internalType": "bool",
          "name": "",
          "type": "bool"
        }
      ],
      "stateMutability": "nonpayable",
      "type": "function"
    },
    {
      "inputs": [
        {
          "internalType": "address",
          "name": "from",
          "type": "address"
        },
        {
          "internalType": "address",
          "name": "to",
          "type": "address"
        },
        {
          "internalType": "uint256",
          "name": "value",
          "type": "uint256"
        }
      ],
      "name": "transferFrom",
      "outputs": [
        {
          "internalType": "bool",
          "name": "",
          "type": "bool"
        }
      ],
      "stateMutability": "nonpayable",
      "type": "function"
    },
    {
      "inputs": [],
      "name": "withdrawFunds",
      "outputs": [],
      "stateMutability": "nonpayable",
      "type": "function"
    }
  ],
  "bytecode": "0x60806040523480156200001157600080fd5b5060405162002339380380620023398339818101604052810190620000379190620002a6565b816040518060400160405280600381526020017f415254000000000000000000000000000000000000000000000000000000000081525081600390816200007f91906200054d565b5080600490816200009191906200054d565b5050508160059081620000a591906200054d565b508060068190555060006007819055506000600860006101000a81548160ff021916908315150217905550505062000634565b6000604051905090565b600080fd5b600080fd5b600080fd5b600080fd5b6000601f19601f8301169050919050565b7f4e487b7100000000000000000000000000000000000000000000000000000000600052604160045260246000fd5b6200014182620000f6565b810181811067ffffffffffffffff8211171562000163576200016262000107565b5b80604052505050565b600062000178620000d8565b905062000186828262000136565b919050565b600067ffffffffffffffff821115620001a957620001a862000107565b5b620001b482620000f6565b9050602081019050919050565b60005b83811015620001e1578082015181840152602081019050620001c4565b60008484015250505050565b600062000204620001fe846200018b565b6200016c565b905082815260208101848484011115620002235762000222620000f1565b5b62000230848285620001c1565b509392505050565b600082601f83011262000250576200024f620000ec565b5b815162000262848260208601620001ed565b91505092915050565b6000819050919050565b62000280816200026b565b81146200028c57600080fd5b50565b600081519050620002a08162000275565b92915050565b60008060408385031215620002c057620002bf620000e2565b5b600083015167ffffffffffffffff811115620002e157620002e0620000e7565b5b620002ef8582860162000238565b925050602062000302858286016200028f565b9150509250929050565b600081519050919050565b7f4e487b7100000000000000000000000000000000000000000000000000000000600052602260045260246000fd5b600060028204905060018216806200035f57607f821691505b60208210810362000375576200037462000317565b5b50919050565b60008190508160005260206000209050919050565b60006020601f8301049050919050565b600082821b905092915050565b600060088302620003df7fffffffffffffffffffffffffffffffffffffffffffffffffffffffffffffffff82620003a0565b620003eb8683620003a0565b95508019841693508086168417925050509392505050565b6000819050919050565b60006200042e6200042862000422846200026b565b62000403565b6200026b565b9050919050565b6000819050919050565b6200044a836200040d565b62000462620004598262000435565b848454620003ad565b825550505050565b600090565b620004796200046a565b620004868184846200043f565b505050565b5b81811015620004ae57620004a26000826200046f565b6001810190506200048c565b5050565b601f821115620004fd57620004c7816200037b565b620004d28462000390565b81016020851015620004e2578190505b620004fa620004f18562000390565b8301826200048b565b50505b505050565b600082821c905092915050565b6000620005226000198460080262000502565b1980831691505092915050565b60006200053d83836200050f565b9150826002028217905092915050565b62000558826200030c565b67ffffffffffffffff81111562000574576200057362000107565b5b62000580825462000346565b6200058d828285620004b2565b600060209050601f831160018114620005c55760008415620005b0578287015190505b620005bc85826200052f565b8655506200062c565b601f198416620005d5866200037b565b60005b82811015620005ff57848901518255600182019150602085019450602081019050620005d8565b868310156200061f57848901516200061b601f8916826200050f565b8355505b6001600288020188555050505b505050505050565b611cf580620006446000396000f3fe60806040526004361061011f5760003560e01c80637a3a0e84116100a0578063ad044f4911610064578063ad044f49146103ed578063d7bb99ba14610418578063dd62ed3e14610422578063eb6c197c1461045f578063f2580fa71461048a5761011f565b80637a3a0e84146103045780638da5cb5b1461032f57806395d89b411461035a5780639a33e30014610385578063a9059cbb146103b05761011f565b8063313ce567116100e7578063313ce5671461020b5780633c24b7d71461023657806342e94c901461027357806370a08231146102b0578063766a217d146102ed5761011f565b806306fdde0314610124578063095ea7b31461014f57806318160ddd1461018c57806323b872dd146101b757806324600fc3146101f4575b600080fd5b34801561013057600080fd5b506101396104b5565b6040516101469190611514565b60405180910390f35b34801561015b57600080fd5b50610176600480360381019061017191906115cf565b610547565b604051610183919061162a565b60405180910390f35b34801561019857600080fd5b506101a161056a565b6040516101ae9190611654565b60405180910390f35b3480156101c357600080fd5b506101de60048036038101906101d9919061166f565b610574565b6040516101eb919061162a565b60405180910390f35b34801561020057600080fd5b506102096105a3565b005b34801561021757600080fd5b506102206106ed565b60405161022d91906116de565b60405180910390f35b34801561024257600080fd5b5061025d600480360381019061025891906116f9565b6106f6565b60405161026a9190611735565b60405180910390f35b34801561027f57600080fd5b5061029a60048036038101906102959190611750565b610735565b6040516102a79190611654565b60405180910390f35b3480156102bc57600080fd5b506102d760048036038101906102d29190611750565b61074d565b6040516102e49190611654565b60405180910390f35b3480156102f957600080fd5b50610302610795565b005b34801561031057600080fd5b506103196109c6565b6040516103269190611654565b60405180910390f35b34801561033b57600080fd5b506103446109cc565b6040516103519190611735565b60405180910390f35b34801561036657600080fd5b5061036f6109f2565b60405161037c9190611514565b60405180910390f35b34801561039157600080fd5b5061039a610a84565b6040516103a79190611514565b60405180910390f35b3480156103bc57600080fd5b506103d760048036038101906103d291906115cf565b610b12565b6040516103e4919061162a565b60405180910390f35b3480156103f957600080fd5b50610402610b35565b60405161040f9190611654565b60405180910390f35b610420610b3b565b005b34801561042e57600080fd5b506104496004803603810190610444919061177d565b610dc4565b6040516104569190611654565b60405180910390f35b34801561046b57600080fd5b50610474610e4b565b604051610481919061162a565b60405180910390f35b34801561049657600080fd5b5061049f610e5e565b6040516104ac9190611654565b60405180910390f35b6060600380546104c4906117ec565b80601f01602080910402602001604051908101604052809291908181526020018280546104f0906117ec565b801561053d5780601f106105125761010080835404028352916020019161053d565b820191906000526020600020905b81548152906001019060200180831161052057829003601f168201915b5050505050905090565b600080610552610e64565b905061055f818585610e6c565b600191505092915050565b6000600254905090565b60008061057f610e64565b905061058c858285610e7e565b610597858585610f12565b60019150509392505050565b600860019054906101000a900473ffffffffffffffffffffffffffffffffffffffff1673ffffffffffffffffffffffffffffffffffffffff163373ffffffffffffffffffffffffffffffffffffffff1614610633576040517f08c379a000000000000000000000000000000000000000000000000000000000815260040161062a9061188f565b60405180910390fd5b600860009054906101000a900460ff16610682576040517f08c379a0000000000000000000000000000000000000000000000000000000008152600401610679906118fb565b60405180910390fd5b600860019054906101000a900473ffffffffffffffffffffffffffffffffffffffff1673ffffffffffffffffffffffffffffffffffffffff166108fc479081150290604051600060405180830381858888f193505050501580156106ea573d6000803e3d6000fd5b50565b60006012905090565b600b818154811061070657600080fd5b906000526020600020016000915054906101000a900473ffffffffffffffffffffffffffffffffffffffff1681565b600a6020528060005260406000206000915090505481565b60008060008373ffffffffffffffffffffffffffffffffffffffff1673ffffffffffffffffffffffffffffffffffffffff168152602001908152602001600020549050919050565b600860009054906101000a900460ff166107e4576040517f08c379a00000000000000000000000000000000000000000000000000000000081526004016107db9061198d565b60405180910390fd5b6000600a60003373ffffffffffffffffffffffffffffffffffffffff1673ffffffffffffffffffffffffffffffffffffffff1681526020019081526020016000205411610866576040517f08c379a000000000000000000000000000000000000000000000000000000000815260040161085d906119f9565b60405180910390fd5b60006009540361087f5761087861056a565b6009819055505b6000600a60003373ffffffffffffffffffffffffffffffffffffffff1673ffffffffffffffffffffffffffffffffffffffff1681526020019081526020016000205490506000600754600954836108d69190611a48565b6108e09190611ab9565b905060008111610925576040517f08c379a000000000000000000000000000000000000000000000000000000000815260040161091c90611b36565b60405180910390fd5b6000600a60003373ffffffffffffffffffffffffffffffffffffffff1673ffffffffffffffffffffffffffffffffffffffff168152602001908152602001600020819055506109743382611006565b3373ffffffffffffffffffffffffffffffffffffffff167f16b0da2ffcb90c6723317bd637d9aad7f04711f42bbe0ac0918ebe10f1f9001c826040516109ba9190611654565b60405180910390a25050565b60065481565b600860019054906101000a900473ffffffffffffffffffffffffffffffffffffffff1681565b606060048054610a01906117ec565b80601f0160208091040260200160405190810160405280929190818152602001828054610a2d906117ec565b8015610a7a5780601f10610a4f57610100808354040283529160200191610a7a565b820191906000526020600020905b815481529060010190602001808311610a5d57829003601f168201915b5050505050905090565b60058054610a91906117ec565b80601f0160208091040260200160405190810160405280929190818152602001828054610abd906117ec565b8015610b0a5780601f10610adf57610100808354040283529160200191610b0a565b820191906000526020600020905b815481529060010190602001808311610aed57829003601f168201915b505050505081565b600080610b1d610e64565b9050610b2a818585610f12565b600191505092915050565b60075481565b60003411610b7e576040517f08c379a0000000000000000000000000000000000000000000000000000000008152600401610b7590611bc8565b60405180910390fd5b600860009054906101000a900460ff1615610bce576040517f08c379a0000000000000000000000000000000000000000000000000000000008152600401610bc590611c34565b60405180910390fd5b6000600a60003373ffffffffffffffffffffffffffffffffffffffff1673ffffffffffffffffffffffffffffffffffffffff1681526020019081526020016000205403610c7957600b339080600181540180825580915050600190039060005260206000200160009091909190916101000a81548173ffffffffffffffffffffffffffffffffffffffff021916908373ffffffffffffffffffffffffffffffffffffffff1602179055505b34600a60003373ffffffffffffffffffffffffffffffffffffffff1673ffffffffffffffffffffffffffffffffffffffff1681526020019081526020016000206000828254610cc89190611c54565b925050819055503460076000828254610ce19190611c54565b925050819055503373ffffffffffffffffffffffffffffffffffffffff167f5af8184bef8e4b45eb9f6ed7734d04da38ced226495548f46e0c8ff8d7d9a52434604051610d2e9190611654565b60405180910390a260065460075410610dc2576001600860006101000a81548160ff021916908315150217905550600860019054906101000a900473ffffffffffffffffffffffffffffffffffffffff1673ffffffffffffffffffffffffffffffffffffffff167f032d0b6fb0b369dd3d7406088b1b3ca11d9d7783039824774cf780292a22373760405160405180910390a25b565b6000600160008473ffffffffffffffffffffffffffffffffffffffff1673ffffffffffffffffffffffffffffffffffffffff16815260200190815260200160002060008373ffffffffffffffffffffffffffffffffffffffff1673ffffffffffffffffffffffffffffffffffffffff16815260200190815260200160002054905092915050565b600860009054906101000a900460ff1681565b60095481565b600033905090565b610e798383836001611088565b505050565b6000610e8a8484610dc4565b90507fffffffffffffffffffffffffffffffffffffffffffffffffffffffffffffffff8114610f0c5781811015610efc578281836040517ffb8f41b2000000000000000000000000000000000000000000000000000000008152600401610ef393929190611c88565b60405180910390fd5b610f0b84848484036000611088565b5b50505050565b600073ffffffffffffffffffffffffffffffffffffffff168373ffffffffffffffffffffffffffffffffffffffff1603610f845760006040517f96c6fd1e000000000000000000000000000000000000000000000000000000008152600401610f7b9190611735565b60405180910390fd5b600073ffffffffffffffffffffffffffffffffffffffff168273ffffffffffffffffffffffffffffffffffffffff1603610ff65760006040517fec442f05000000000000000000000000000000000000000000000000000000008152600401610fed9190611735565b60405180910390fd5b61100183838361125f565b505050565b600073ffffffffffffffffffffffffffffffffffffffff168273ffffffffffffffffffffffffffffffffffffffff16036110785760006040517fec442f0500000000000000000000000000000000000000000000000000000000815260040161106f9190611735565b60405180910390fd5b6110846000838361125f565b5050565b600073ffffffffffffffffffffffffffffffffffffffff168473ffffffffffffffffffffffffffffffffffffffff16036110fa5760006040517fe602df050000000000000000000000000000000000000000000000000000000081526004016110f19190611735565b60405180910390fd5b600073ffffffffffffffffffffffffffffffffffffffff168373ffffffffffffffffffffffffffffffffffffffff160361116c5760006040517f94280d620000000000000000000000000000000000000000000000000000000081526004016111639190611735565b60405180910390fd5b81600160008673ffffffffffffffffffffffffffffffffffffffff1673ffffffffffffffffffffffffffffffffffffffff16815260200190815260200160002060008573ffffffffffffffffffffffffffffffffffffffff1673ffffffffffffffffffffffffffffffffffffffff168152602001908152602001600020819055508015611259578273ffffffffffffffffffffffffffffffffffffffff168473ffffffffffffffffffffffffffffffffffffffff167f8c5be1e5ebec7d5bd14f71427d1e84f3dd0314c0f7b2291e5b200ac8c7c3b925846040516112509190611654565b60405180910390a35b50505050565b600073ffffffffffffffffffffffffffffffffffffffff168373ffffffffffffffffffffffffffffffffffffffff16036112b15780600260008282546112a59190611c54565b92505081905550611384565b60008060008573ffffffffffffffffffffffffffffffffffffffff1673ffffffffffffffffffffffffffffffffffffffff1681526020019081526020016000205490508181101561133d578381836040517fe450d38c00000000000000000000000000000000000000000000000000000000815260040161133493929190611c88565b60405180910390fd5b8181036000808673ffffffffffffffffffffffffffffffffffffffff1673ffffffffffffffffffffffffffffffffffffffff16815260200190815260200160002081905550505b600073ffffffffffffffffffffffffffffffffffffffff168273ffffffffffffffffffffffffffffffffffffffff16036113cd578060026000828254039250508190555061141a565b806000808473ffffffffffffffffffffffffffffffffffffffff1673ffffffffffffffffffffffffffffffffffffffff168152602001908152602001600020600082825401925050819055505b8173ffffffffffffffffffffffffffffffffffffffff168373ffffffffffffffffffffffffffffffffffffffff167fddf252ad1be2c89b69c2b068fc378daa952ba7f163c4a11628f55a4df523b3ef836040516114779190611654565b60405180910390a3505050565b600081519050919050565b600082825260208201905092915050565b60005b838110156114be5780820151818401526020810190506114a3565b60008484015250505050565b6000601f19601f8301169050919050565b60006114e682611484565b6114f0818561148f565b93506115008185602086016114a0565b611509816114ca565b840191505092915050565b6000602082019050818103600083015261152e81846114db565b905092915050565b600080fd5b600073ffffffffffffffffffffffffffffffffffffffff82169050919050565b60006115668261153b565b9050919050565b6115768161155b565b811461158157600080fd5b50565b6000813590506115938161156d565b92915050565b6000819050919050565b6115ac81611599565b81146115b757600080fd5b50565b6000813590506115c9816115a3565b92915050565b600080604083850312156115e6576115e5611536565b5b60006115f485828601611584565b9250506020611605858286016115ba565b9150509250929050565b60008115159050919050565b6116248161160f565b82525050565b600060208201905061163f600083018461161b565b92915050565b61164e81611599565b82525050565b60006020820190506116696000830184611645565b92915050565b60008060006060848603121561168857611687611536565b5b600061169686828701611584565b93505060206116a786828701611584565b92505060406116b8868287016115ba565b9150509250925092565b600060ff82169050919050565b6116d8816116c2565b82525050565b60006020820190506116f360008301846116cf565b92915050565b60006020828403121561170f5761170e611536565b5b600061171d848285016115ba565b91505092915050565b61172f8161155b565b82525050565b600060208201905061174a6000830184611726565b92915050565b60006020828403121561176657611765611536565b5b600061177484828501611584565b91505092915050565b6000806040838503121561179457611793611536565b5b60006117a285828601611584565b92505060206117b385828601611584565b9150509250929050565b7f4e487b7100000000000000000000000000000000000000000000000000000000600052602260045260246000fd5b6000600282049050600182168061180457607f821691505b602082108103611817576118166117bd565b5b50919050565b7f4f6e6c7920746865206f776e65722063616e2077697468647261772066756e6460008201527f7300000000000000000000000000000000000000000000000000000000000000602082015250565b600061187960218361148f565b91506118848261181d565b604082019050919050565b600060208201905081810360008301526118a88161186c565b9050919050565b7f46756e64696e6720676f616c206e6f7420726561636865640000000000000000600082015250565b60006118e560188361148f565b91506118f0826118af565b602082019050919050565b60006020820190508181036000830152611914816118d8565b9050919050565b7f546f6b656e7320617265206e6f7420726561647920666f72206469737472696260008201527f7574696f6e000000000000000000000000000000000000000000000000000000602082015250565b600061197760258361148f565b91506119828261191b565b604082019050919050565b600060208201905081810360008301526119a68161196a565b9050919050565b7f4e6f20636f6e747269627574696f6e20666f756e640000000000000000000000600082015250565b60006119e360158361148f565b91506119ee826119ad565b602082019050919050565b60006020820190508181036000830152611a12816119d6565b9050919050565b7f4e487b7100000000000000000000000000000000000000000000000000000000600052601160045260246000fd5b6000611a5382611599565b9150611a5e83611599565b9250828202611a6c81611599565b91508282048414831517611a8357611a82611a19565b5b5092915050565b7f4e487b7100000000000000000000000000000000000000000000000000000000600052601260045260246000fd5b6000611ac482611599565b9150611acf83611599565b925082611adf57611ade611a8a565b5b828204905092915050565b7f4e6f20746f6b656e7320746f2064697374726962757465000000000000000000600082015250565b6000611b2060178361148f565b9150611b2b82611aea565b602082019050919050565b60006020820190508181036000830152611b4f81611b13565b9050919050565b7f436f6e747269627574696f6e206d75737420626520677265617465722074686160008201527f6e207a65726f0000000000000000000000000000000000000000000000000000602082015250565b6000611bb260268361148f565b9150611bbd82611b56565b604082019050919050565b60006020820190508181036000830152611be181611ba5565b9050919050565b7f46756e64696e6720706572696f642068617320656e6465640000000000000000600082015250565b6000611c1e60188361148f565b9150611c2982611be8565b602082019050919050565b60006020820190508181036000830152611c4d81611c11565b9050919050565b6000611c5f82611599565b9150611c6a83611599565b9250828201905080821115611c8257611c81611a19565b5b92915050565b6000606082019050611c9d6000830186611726565b611caa6020830185611645565b611cb76040830184611645565b94935050505056fea26469706673582212201057fee064ca5797148a93e8d3fd801910f63c0efa6797b8a736b1265974aa7c64736f6c63430008180033",
  "linkReferences": {},
  "deployedLinkReferences": {}
}